{
  "contractName": "NftMarket",
  "abi": [
    {
      "inputs": [],
      "stateMutability": "nonpayable",
      "type": "constructor"
    },
    {
      "anonymous": false,
      "inputs": [
        {
          "indexed": true,
          "internalType": "address",
          "name": "owner",
          "type": "address"
        },
        {
          "indexed": true,
          "internalType": "address",
          "name": "approved",
          "type": "address"
        },
        {
          "indexed": true,
          "internalType": "uint256",
          "name": "tokenId",
          "type": "uint256"
        }
      ],
      "name": "Approval",
      "type": "event"
    },
    {
      "anonymous": false,
      "inputs": [
        {
          "indexed": true,
          "internalType": "address",
          "name": "owner",
          "type": "address"
        },
        {
          "indexed": true,
          "internalType": "address",
          "name": "operator",
          "type": "address"
        },
        {
          "indexed": false,
          "internalType": "bool",
          "name": "approved",
          "type": "bool"
        }
      ],
      "name": "ApprovalForAll",
      "type": "event"
    },
    {
      "anonymous": false,
      "inputs": [
        {
          "indexed": false,
          "internalType": "uint256",
          "name": "tokenId",
          "type": "uint256"
        },
        {
          "indexed": false,
          "internalType": "uint256",
          "name": "price",
          "type": "uint256"
        },
        {
          "indexed": false,
          "internalType": "address",
          "name": "creator",
          "type": "address"
        },
        {
          "indexed": false,
          "internalType": "bool",
          "name": "isListed",
          "type": "bool"
        }
      ],
      "name": "NftItemCreated",
      "type": "event"
    },
    {
      "anonymous": false,
      "inputs": [
        {
          "indexed": true,
          "internalType": "address",
          "name": "previousOwner",
          "type": "address"
        },
        {
          "indexed": true,
          "internalType": "address",
          "name": "newOwner",
          "type": "address"
        }
      ],
      "name": "OwnershipTransferred",
      "type": "event"
    },
    {
      "anonymous": false,
      "inputs": [
        {
          "indexed": true,
          "internalType": "address",
          "name": "from",
          "type": "address"
        },
        {
          "indexed": true,
          "internalType": "address",
          "name": "to",
          "type": "address"
        },
        {
          "indexed": true,
          "internalType": "uint256",
          "name": "tokenId",
          "type": "uint256"
        }
      ],
      "name": "Transfer",
      "type": "event"
    },
    {
      "inputs": [
        {
          "internalType": "address",
          "name": "to",
          "type": "address"
        },
        {
          "internalType": "uint256",
          "name": "tokenId",
          "type": "uint256"
        }
      ],
      "name": "approve",
      "outputs": [],
      "stateMutability": "nonpayable",
      "type": "function"
    },
    {
      "inputs": [
        {
          "internalType": "address",
          "name": "owner",
          "type": "address"
        }
      ],
      "name": "balanceOf",
      "outputs": [
        {
          "internalType": "uint256",
          "name": "",
          "type": "uint256"
        }
      ],
      "stateMutability": "view",
      "type": "function",
      "constant": true
    },
    {
      "inputs": [
        {
          "internalType": "uint256",
          "name": "tokenId",
          "type": "uint256"
        }
      ],
      "name": "getApproved",
      "outputs": [
        {
          "internalType": "address",
          "name": "",
          "type": "address"
        }
      ],
      "stateMutability": "view",
      "type": "function",
      "constant": true
    },
    {
      "inputs": [
        {
          "internalType": "address",
          "name": "owner",
          "type": "address"
        },
        {
          "internalType": "address",
          "name": "operator",
          "type": "address"
        }
      ],
      "name": "isApprovedForAll",
      "outputs": [
        {
          "internalType": "bool",
          "name": "",
          "type": "bool"
        }
      ],
      "stateMutability": "view",
      "type": "function",
      "constant": true
    },
    {
      "inputs": [],
      "name": "listingPrice",
      "outputs": [
        {
          "internalType": "uint256",
          "name": "",
          "type": "uint256"
        }
      ],
      "stateMutability": "view",
      "type": "function",
      "constant": true
    },
    {
      "inputs": [],
      "name": "name",
      "outputs": [
        {
          "internalType": "string",
          "name": "",
          "type": "string"
        }
      ],
      "stateMutability": "view",
      "type": "function",
      "constant": true
    },
    {
      "inputs": [],
      "name": "owner",
      "outputs": [
        {
          "internalType": "address",
          "name": "",
          "type": "address"
        }
      ],
      "stateMutability": "view",
      "type": "function",
      "constant": true
    },
    {
      "inputs": [
        {
          "internalType": "uint256",
          "name": "tokenId",
          "type": "uint256"
        }
      ],
      "name": "ownerOf",
      "outputs": [
        {
          "internalType": "address",
          "name": "",
          "type": "address"
        }
      ],
      "stateMutability": "view",
      "type": "function",
      "constant": true
    },
    {
      "inputs": [],
      "name": "renounceOwnership",
      "outputs": [],
      "stateMutability": "nonpayable",
      "type": "function"
    },
    {
      "inputs": [
        {
          "internalType": "address",
          "name": "from",
          "type": "address"
        },
        {
          "internalType": "address",
          "name": "to",
          "type": "address"
        },
        {
          "internalType": "uint256",
          "name": "tokenId",
          "type": "uint256"
        }
      ],
      "name": "safeTransferFrom",
      "outputs": [],
      "stateMutability": "nonpayable",
      "type": "function"
    },
    {
      "inputs": [
        {
          "internalType": "address",
          "name": "from",
          "type": "address"
        },
        {
          "internalType": "address",
          "name": "to",
          "type": "address"
        },
        {
          "internalType": "uint256",
          "name": "tokenId",
          "type": "uint256"
        },
        {
          "internalType": "bytes",
          "name": "_data",
          "type": "bytes"
        }
      ],
      "name": "safeTransferFrom",
      "outputs": [],
      "stateMutability": "nonpayable",
      "type": "function"
    },
    {
      "inputs": [
        {
          "internalType": "address",
          "name": "operator",
          "type": "address"
        },
        {
          "internalType": "bool",
          "name": "approved",
          "type": "bool"
        }
      ],
      "name": "setApprovalForAll",
      "outputs": [],
      "stateMutability": "nonpayable",
      "type": "function"
    },
    {
      "inputs": [
        {
          "internalType": "bytes4",
          "name": "interfaceId",
          "type": "bytes4"
        }
      ],
      "name": "supportsInterface",
      "outputs": [
        {
          "internalType": "bool",
          "name": "",
          "type": "bool"
        }
      ],
      "stateMutability": "view",
      "type": "function",
      "constant": true
    },
    {
      "inputs": [],
      "name": "symbol",
      "outputs": [
        {
          "internalType": "string",
          "name": "",
          "type": "string"
        }
      ],
      "stateMutability": "view",
      "type": "function",
      "constant": true
    },
    {
      "inputs": [
        {
          "internalType": "uint256",
          "name": "tokenId",
          "type": "uint256"
        }
      ],
      "name": "tokenURI",
      "outputs": [
        {
          "internalType": "string",
          "name": "",
          "type": "string"
        }
      ],
      "stateMutability": "view",
      "type": "function",
      "constant": true
    },
    {
      "inputs": [
        {
          "internalType": "address",
          "name": "from",
          "type": "address"
        },
        {
          "internalType": "address",
          "name": "to",
          "type": "address"
        },
        {
          "internalType": "uint256",
          "name": "tokenId",
          "type": "uint256"
        }
      ],
      "name": "transferFrom",
      "outputs": [],
      "stateMutability": "nonpayable",
      "type": "function"
    },
    {
      "inputs": [
        {
          "internalType": "address",
          "name": "newOwner",
          "type": "address"
        }
      ],
      "name": "transferOwnership",
      "outputs": [],
      "stateMutability": "nonpayable",
      "type": "function"
    },
    {
      "inputs": [
        {
          "internalType": "uint256",
          "name": "newPrice",
          "type": "uint256"
        }
      ],
      "name": "setListingPrice",
      "outputs": [],
      "stateMutability": "nonpayable",
      "type": "function"
    },
    {
      "inputs": [],
      "name": "totalSupply",
      "outputs": [
        {
          "internalType": "uint256",
          "name": "",
          "type": "uint256"
        }
      ],
      "stateMutability": "view",
      "type": "function",
      "constant": true
    },
    {
      "inputs": [
        {
          "internalType": "uint256",
          "name": "index",
          "type": "uint256"
        }
      ],
      "name": "tokenByIndex",
      "outputs": [
        {
          "internalType": "uint256",
          "name": "",
          "type": "uint256"
        }
      ],
      "stateMutability": "view",
      "type": "function",
      "constant": true
    },
    {
      "inputs": [
        {
          "internalType": "address",
          "name": "owner",
          "type": "address"
        },
        {
          "internalType": "uint256",
          "name": "index",
          "type": "uint256"
        }
      ],
      "name": "tokenOfOwnerIdByIndex",
      "outputs": [
        {
          "internalType": "uint256",
          "name": "",
          "type": "uint256"
        }
      ],
      "stateMutability": "view",
      "type": "function",
      "constant": true
    },
    {
      "inputs": [],
      "name": "getAllNftsOnSale",
      "outputs": [
        {
          "components": [
            {
              "internalType": "uint256",
              "name": "tokenId",
              "type": "uint256"
            },
            {
              "internalType": "uint256",
              "name": "price",
              "type": "uint256"
            },
            {
              "internalType": "address",
              "name": "creator",
              "type": "address"
            },
            {
              "internalType": "bool",
              "name": "isListed",
              "type": "bool"
            }
          ],
          "internalType": "struct NftMarket.NftItem[]",
          "name": "",
          "type": "tuple[]"
        }
      ],
      "stateMutability": "view",
      "type": "function",
      "constant": true
    },
    {
      "inputs": [],
      "name": "getOwnedNfts",
      "outputs": [
        {
          "components": [
            {
              "internalType": "uint256",
              "name": "tokenId",
              "type": "uint256"
            },
            {
              "internalType": "uint256",
              "name": "price",
              "type": "uint256"
            },
            {
              "internalType": "address",
              "name": "creator",
              "type": "address"
            },
            {
              "internalType": "bool",
              "name": "isListed",
              "type": "bool"
            }
          ],
          "internalType": "struct NftMarket.NftItem[]",
          "name": "",
          "type": "tuple[]"
        }
      ],
      "stateMutability": "view",
      "type": "function",
      "constant": true
    },
    {
      "inputs": [
        {
          "internalType": "uint256",
          "name": "tokenId",
          "type": "uint256"
        }
      ],
      "name": "buyNft",
      "outputs": [],
      "stateMutability": "payable",
      "type": "function",
      "payable": true
    },
    {
      "inputs": [
        {
          "internalType": "uint256",
          "name": "tokenId",
          "type": "uint256"
        }
      ],
      "name": "getNftItem",
      "outputs": [
        {
          "components": [
            {
              "internalType": "uint256",
              "name": "tokenId",
              "type": "uint256"
            },
            {
              "internalType": "uint256",
              "name": "price",
              "type": "uint256"
            },
            {
              "internalType": "address",
              "name": "creator",
              "type": "address"
            },
            {
              "internalType": "bool",
              "name": "isListed",
              "type": "bool"
            }
          ],
          "internalType": "struct NftMarket.NftItem",
          "name": "",
          "type": "tuple"
        }
      ],
      "stateMutability": "view",
      "type": "function",
      "constant": true
    },
    {
      "inputs": [],
      "name": "listedItemsCount",
      "outputs": [
        {
          "internalType": "uint256",
          "name": "",
          "type": "uint256"
        }
      ],
      "stateMutability": "view",
      "type": "function",
      "constant": true
    },
    {
      "inputs": [
        {
          "internalType": "string",
          "name": "tokenURI",
          "type": "string"
        }
      ],
      "name": "tokenURIExists",
      "outputs": [
        {
          "internalType": "bool",
          "name": "",
          "type": "bool"
        }
      ],
      "stateMutability": "view",
      "type": "function",
      "constant": true
    },
    {
      "inputs": [
        {
          "internalType": "uint256",
          "name": "tokenId",
          "type": "uint256"
        }
      ],
      "name": "burnToken",
      "outputs": [],
      "stateMutability": "nonpayable",
      "type": "function"
    },
    {
      "inputs": [
        {
          "internalType": "string",
          "name": "tokenURI",
          "type": "string"
        },
        {
          "internalType": "uint256",
          "name": "price",
          "type": "uint256"
        }
      ],
      "name": "mintToken",
      "outputs": [
        {
          "internalType": "uint256",
          "name": "",
          "type": "uint256"
        }
      ],
      "stateMutability": "payable",
      "type": "function",
      "payable": true
    },
    {
      "inputs": [
        {
          "internalType": "uint256",
          "name": "tokenId",
          "type": "uint256"
        },
        {
          "internalType": "uint256",
          "name": "newPrice",
          "type": "uint256"
        }
      ],
      "name": "placeNftOnSale",
      "outputs": [],
      "stateMutability": "payable",
      "type": "function",
      "payable": true
    }
  ],
  "bytecode": "0x60806040526658d15e176280006008553480156200001c57600080fd5b50604080518082018252600c81526b10dc99585d1d5c995cd3919560a21b60208083019182528351808501909452600484526310d3919560e21b9084015281519192916200006d91600091620000fc565b50805162000083906001906020840190620000fc565b505050620000a06200009a620000a660201b60201c565b620000aa565b620001de565b3390565b600780546001600160a01b038381166001600160a01b0319831681179093556040519116919082907f8be0079c531659141344cd1fd0a4f28419497f9722a3daafe3b4186f6b6457e090600090a35050565b8280546200010a90620001a2565b90600052602060002090601f0160209004810192826200012e576000855562000179565b82601f106200014957805160ff191683800117855562000179565b8280016001018555821562000179579182015b82811115620001795782518255916020019190600101906200015c565b50620001879291506200018b565b5090565b5b808211156200018757600081556001016200018c565b600181811c90821680620001b757607f821691505b602082108103620001d857634e487b7160e01b600052602260045260246000fd5b50919050565b612a4e80620001ee6000396000f3fe6080604052600436106101cd5760003560e01c806370cbcb43116100f7578063a22cb46511610095578063c87b56dd11610064578063c87b56dd146104fd578063ccb4918d1461051d578063e985e9c514610532578063f2fde38b1461057b57600080fd5b8063a22cb46514610494578063b88d4fde146104b4578063c046372c146104d4578063c78f19f9146104e757600080fd5b80637c726b69116100d15780637c726b69146104215780638da5cb5b1461044157806395d89b411461045f578063a09aa96c1461047457600080fd5b806370cbcb43146103d7578063715018a6146103ec5780637b47ec1a1461040157600080fd5b8063243adbdd1161016f5780634f6ccce71161013e5780634f6ccce71461034a5780636352211e1461036a5780636f1a0af51461038a57806370a08231146103b757600080fd5b8063243adbdd146102d557806336b536be146102e857806342842e0e1461030a57806343d32ae71461032a57600080fd5b8063095ea7b3116101ab578063095ea7b31461026157806318160ddd1461028357806321f422e5146102a257806323b872dd146102b557600080fd5b806301ffc9a7146101d257806306fdde0314610207578063081812fc14610229575b600080fd5b3480156101de57600080fd5b506101f26101ed36600461237b565b61059b565b60405190151581526020015b60405180910390f35b34801561021357600080fd5b5061021c6105ed565b6040516101fe91906123f0565b34801561023557600080fd5b50610249610244366004612403565b61067f565b6040516001600160a01b0390911681526020016101fe565b34801561026d57600080fd5b5061028161027c366004612438565b61070c565b005b34801561028f57600080fd5b50600d545b6040519081526020016101fe565b6102816102b0366004612462565b610821565b3480156102c157600080fd5b506102816102d0366004612484565b610982565b6102816102e3366004612403565b6109b3565b3480156102f457600080fd5b506102fd610ae4565b6040516101fe91906124c0565b34801561031657600080fd5b50610281610325366004612484565b610c1d565b34801561033657600080fd5b506101f26103453660046125e3565b610c38565b34801561035657600080fd5b50610294610365366004612403565b610c68565b34801561037657600080fd5b50610249610385366004612403565b610cde565b34801561039657600080fd5b506103aa6103a5366004612403565b610d55565b6040516101fe9190612618565b3480156103c357600080fd5b506102946103d236600461264e565b610db2565b3480156103e357600080fd5b506102fd610e39565b3480156103f857600080fd5b50610281610f48565b34801561040d57600080fd5b5061028161041c366004612403565b610f7e565b34801561042d57600080fd5b5061028161043c366004612403565b610fed565b34801561044d57600080fd5b506007546001600160a01b0316610249565b34801561046b57600080fd5b5061021c61106c565b34801561048057600080fd5b5061029461048f366004612438565b61107b565b3480156104a057600080fd5b506102816104af366004612669565b6110f5565b3480156104c057600080fd5b506102816104cf3660046126a5565b611100565b6102946104e2366004612721565b611132565b3480156104f357600080fd5b5061029460085481565b34801561050957600080fd5b5061021c610518366004612403565b611268565b34801561052957600080fd5b506102946113de565b34801561053e57600080fd5b506101f261054d366004612766565b6001600160a01b03918216600090815260056020908152604080832093909416825291909152205460ff1690565b34801561058757600080fd5b5061028161059636600461264e565b6113ee565b60006001600160e01b031982166380ac58cd60e01b14806105cc57506001600160e01b03198216635b5e139f60e01b145b806105e757506301ffc9a760e01b6001600160e01b03198316145b92915050565b6060600080546105fc90612799565b80601f016020809104026020016040519081016040528092919081815260200182805461062890612799565b80156106755780601f1061064a57610100808354040283529160200191610675565b820191906000526020600020905b81548152906001019060200180831161065857829003601f168201915b5050505050905090565b600061068a82611489565b6106f05760405162461bcd60e51b815260206004820152602c60248201527f4552433732313a20617070726f76656420717565727920666f72206e6f6e657860448201526b34b9ba32b73a103a37b5b2b760a11b60648201526084015b60405180910390fd5b506000908152600460205260409020546001600160a01b031690565b600061071782610cde565b9050806001600160a01b0316836001600160a01b0316036107845760405162461bcd60e51b815260206004820152602160248201527f4552433732313a20617070726f76616c20746f2063757272656e74206f776e656044820152603960f91b60648201526084016106e7565b336001600160a01b03821614806107a057506107a0813361054d565b6108125760405162461bcd60e51b815260206004820152603860248201527f4552433732313a20617070726f76652063616c6c6572206973206e6f74206f7760448201527f6e6572206e6f7220617070726f76656420666f7220616c6c000000000000000060648201526084016106e7565b61081c83836114a6565b505050565b3361082b83610cde565b6001600160a01b0316146108815760405162461bcd60e51b815260206004820152601d60248201527f596f7520617265206e6f74206f776e6572206f662074686973206e667400000060448201526064016106e7565b6000828152600f6020526040902060020154600160a01b900460ff16156108ea5760405162461bcd60e51b815260206004820152601760248201527f4974656d20697320616c7265616479206f6e2073616c6500000000000000000060448201526064016106e7565b60085434146109475760405162461bcd60e51b8152602060048201526024808201527f5072696365206d79737420626520657175616c20746f206c697374696e6720706044820152637269636560e01b60648201526084016106e7565b6000828152600f6020526040902060028101805460ff60a01b1916600160a01b17905560010181905561097e600a80546001019055565b5050565b61098c3382611514565b6109a85760405162461bcd60e51b81526004016106e7906127d3565b61081c8383836115fa565b6000818152600f6020526040812060010154906109cf83610cde565b90506001600160a01b0381163303610a295760405162461bcd60e51b815260206004820152601960248201527f596f7520616c726561647920686176652074686973204e66740000000000000060448201526064016106e7565b813414610a785760405162461bcd60e51b815260206004820152601e60248201527f506c65617365207375626d6974207468652061736b696e67207072696365000060448201526064016106e7565b6000838152600f60205260409020600201805460ff60a01b19169055610a9e600a6117a1565b610aa98133856115fa565b6040516001600160a01b038216903480156108fc02916000818181858888f19350505050158015610ade573d6000803e3d6000fd5b50505050565b60606000610af1600d5490565b9050600080610aff600a5490565b67ffffffffffffffff811115610b1757610b17612537565b604051908082528060200260200182016040528015610b5057816020015b610b3d61225f565b815260200190600190039081610b355790505b50905060005b83811015610c15576000610b6982610c68565b6000818152600f60205260409020600281015491925090600160a01b900460ff161515600103610c005760408051608081018252825481526001830154602082015260028301546001600160a01b03811692820192909252600160a01b90910460ff16151560608201528451859087908110610be757610be7612824565b6020908102919091010152610bfd600186612850565b94505b50508080610c0d90612868565b915050610b56565b509392505050565b61081c83838360405180602001604052806000815250611100565b6000600e82604051610c4a9190612881565b9081526040519081900360200190205460ff16151560011492915050565b6000610c73600d5490565b8210610cb95760405162461bcd60e51b8152602060048201526015602482015274696e646578206f7574206f6620626f756e6461727960581b60448201526064016106e7565b600d8281548110610ccc57610ccc612824565b90600052602060002001549050919050565b6000818152600260205260408120546001600160a01b0316806105e75760405162461bcd60e51b815260206004820152602960248201527f4552433732313a206f776e657220717565727920666f72206e6f6e657869737460448201526832b73a103a37b5b2b760b91b60648201526084016106e7565b610d5d61225f565b506000908152600f6020908152604091829020825160808101845281548152600182015492810192909252600201546001600160a01b03811692820192909252600160a01b90910460ff161515606082015290565b60006001600160a01b038216610e1d5760405162461bcd60e51b815260206004820152602a60248201527f4552433732313a2062616c616e636520717565727920666f7220746865207a65604482015269726f206164647265737360b01b60648201526084016106e7565b506001600160a01b031660009081526003602052604090205490565b60606000610e4633610db2565b905060008167ffffffffffffffff811115610e6357610e63612537565b604051908082528060200260200182016040528015610e9c57816020015b610e8961225f565b815260200190600190039081610e815790505b50905060005b82811015610f41576000610eb6338361107b565b6000818152600f602090815260409182902082516080810184528154815260018201549281019290925260028101546001600160a01b03811693830193909352600160a01b90920460ff161515606082015285519293509091859085908110610f2157610f21612824565b602002602001018190525050508080610f3990612868565b915050610ea2565b5092915050565b6007546001600160a01b03163314610f725760405162461bcd60e51b81526004016106e79061289d565b610f7c60006117f8565b565b6000818152600f6020908152604091829020825160808101845281548152600180830154938201939093526002909101546001600160a01b03811693820193909352600160a01b90920460ff161515606083018190529003610fe457610fe4600a6117a1565b61097e8261184a565b6007546001600160a01b031633146110175760405162461bcd60e51b81526004016106e79061289d565b600081116110675760405162461bcd60e51b815260206004820152601d60248201527f5072696365206d757374206265206174206c656173742031207765692e00000060448201526064016106e7565b600855565b6060600180546105fc90612799565b600061108683610db2565b82106110cc5760405162461bcd60e51b8152602060048201526015602482015274696e646578206f7574206f6620626f756e6461727960581b60448201526064016106e7565b506001600160a01b03919091166000908152600b60209081526040808320938352929052205490565b61097e33838361188a565b61110a3383611514565b6111265760405162461bcd60e51b81526004016106e7906127d3565b610ade84848484611958565b600061113d83610c38565b1561118a5760405162461bcd60e51b815260206004820152601860248201527f746f6b656e55524920616c72656164792065786973747321000000000000000060448201526064016106e7565b60085434146111e75760405162461bcd60e51b8152602060048201526024808201527f5072696365206d75737420626520657175616c20746f206c697374696e6720706044820152637269636560e01b60648201526084016106e7565b6111f5600980546001019055565b611203600a80546001019055565b600061120e60095490565b905061121a338261198b565b61122481856119a5565b61122e8184611a30565b6001600e856040516112409190612881565b908152604051908190036020019020805491151560ff19909216919091179055905092915050565b606061127382611489565b6112d95760405162461bcd60e51b815260206004820152603160248201527f45524337323155524953746f726167653a2055524920717565727920666f72206044820152703737b732bc34b9ba32b73a103a37b5b2b760791b60648201526084016106e7565b600082815260066020526040812080546112f290612799565b80601f016020809104026020016040519081016040528092919081815260200182805461131e90612799565b801561136b5780601f106113405761010080835404028352916020019161136b565b820191906000526020600020905b81548152906001019060200180831161134e57829003601f168201915b50505050509050600061138960408051602081019091526000815290565b9050805160000361139b575092915050565b8151156113cd5780826040516020016113b59291906128d2565b60405160208183030381529060405292505050919050565b6113d684611b3a565b949350505050565b60006113e9600a5490565b905090565b6007546001600160a01b031633146114185760405162461bcd60e51b81526004016106e79061289d565b6001600160a01b03811661147d5760405162461bcd60e51b815260206004820152602660248201527f4f776e61626c653a206e6577206f776e657220697320746865207a65726f206160448201526564647265737360d01b60648201526084016106e7565b611486816117f8565b50565b6000908152600260205260409020546001600160a01b0316151590565b600081815260046020526040902080546001600160a01b0319166001600160a01b03841690811790915581906114db82610cde565b6001600160a01b03167f8c5be1e5ebec7d5bd14f71427d1e84f3dd0314c0f7b2291e5b200ac8c7c3b92560405160405180910390a45050565b600061151f82611489565b6115805760405162461bcd60e51b815260206004820152602c60248201527f4552433732313a206f70657261746f7220717565727920666f72206e6f6e657860448201526b34b9ba32b73a103a37b5b2b760a11b60648201526084016106e7565b600061158b83610cde565b9050806001600160a01b0316846001600160a01b031614806115c65750836001600160a01b03166115bb8461067f565b6001600160a01b0316145b806113d657506001600160a01b0380821660009081526005602090815260408083209388168352929052205460ff166113d6565b826001600160a01b031661160d82610cde565b6001600160a01b0316146116715760405162461bcd60e51b815260206004820152602560248201527f4552433732313a207472616e736665722066726f6d20696e636f72726563742060448201526437bbb732b960d91b60648201526084016106e7565b6001600160a01b0382166116d35760405162461bcd60e51b8152602060048201526024808201527f4552433732313a207472616e7366657220746f20746865207a65726f206164646044820152637265737360e01b60648201526084016106e7565b6116de838383611c12565b6116e96000826114a6565b6001600160a01b0383166000908152600360205260408120805460019290611712908490612901565b90915550506001600160a01b0382166000908152600360205260408120805460019290611740908490612850565b909155505060008181526002602052604080822080546001600160a01b0319166001600160a01b0386811691821790925591518493918716917fddf252ad1be2c89b69c2b068fc378daa952ba7f163c4a11628f55a4df523b3ef91a4505050565b8054806117f05760405162461bcd60e51b815260206004820152601b60248201527f436f756e7465723a2064656372656d656e74206f766572666c6f77000000000060448201526064016106e7565b600019019055565b600780546001600160a01b038381166001600160a01b0319831681179093556040519116919082907f8be0079c531659141344cd1fd0a4f28419497f9722a3daafe3b4186f6b6457e090600090a35050565b61185381611cca565b6000818152600660205260409020805461186c90612799565b15905061148657600081815260066020526040812061148691612292565b816001600160a01b0316836001600160a01b0316036118eb5760405162461bcd60e51b815260206004820152601960248201527f4552433732313a20617070726f766520746f2063616c6c65720000000000000060448201526064016106e7565b6001600160a01b03838116600081815260056020908152604080832094871680845294825291829020805460ff191686151590811790915591519182527f17307eab39ab6107e8899845ad3d59bd9653f200f220920489ca2b5937696c31910160405180910390a3505050565b6119638484846115fa565b61196f84848484611d71565b610ade5760405162461bcd60e51b81526004016106e790612918565b61097e828260405180602001604052806000815250611e72565b6119ae82611489565b611a115760405162461bcd60e51b815260206004820152602e60248201527f45524337323155524953746f726167653a2055524920736574206f66206e6f6e60448201526d32bc34b9ba32b73a103a37b5b2b760911b60648201526084016106e7565b6000828152600660209081526040909120825161081c928401906122cc565b60008111611a805760405162461bcd60e51b815260206004820152601c60248201527f5072696365206d757374206265206174206c656173742031207765690000000060448201526064016106e7565b60408051608080820183528482526020808301858152338486018181526001606080880182815260008c8152600f88528a90209851895594518883015591516002909701805494511515600160a01b026001600160a81b03199095166001600160a01b039098169790971793909317909555855188815292830187905294820194909452918201929092527f470031062672bc0246e132c723a729c4676710ec663a29e86c88678032daddea910160405180910390a15050565b6060611b4582611489565b611ba95760405162461bcd60e51b815260206004820152602f60248201527f4552433732314d657461646174613a2055524920717565727920666f72206e6f60448201526e3732bc34b9ba32b73a103a37b5b2b760891b60648201526084016106e7565b6000611bc060408051602081019091526000815290565b90506000815111611be05760405180602001604052806000815250611c0b565b80611bea84611ea5565b604051602001611bfb9291906128d2565b6040516020818303038152906040525b9392505050565b6001600160a01b038316611c6d57611c6881600d80546000838152601060205260408120829055600182018355919091527fd7b6990105719101dabeb77144f2a3385c8033acd3af97e9423a695e81ad1eb50155565b611c90565b816001600160a01b0316836001600160a01b031614611c9057611c908382611fa6565b6001600160a01b038216611ca75761081c81612043565b826001600160a01b0316826001600160a01b03161461081c5761081c82826120dc565b6000611cd582610cde565b9050611ce381600084611c12565b611cee6000836114a6565b6001600160a01b0381166000908152600360205260408120805460019290611d17908490612901565b909155505060008281526002602052604080822080546001600160a01b0319169055518391906001600160a01b038416907fddf252ad1be2c89b69c2b068fc378daa952ba7f163c4a11628f55a4df523b3ef908390a45050565b60006001600160a01b0384163b15611e6757604051630a85bd0160e11b81526001600160a01b0385169063150b7a0290611db590339089908890889060040161296a565b6020604051808303816000875af1925050508015611df0575060408051601f3d908101601f19168201909252611ded918101906129a7565b60015b611e4d573d808015611e1e576040519150601f19603f3d011682016040523d82523d6000602084013e611e23565b606091505b508051600003611e455760405162461bcd60e51b81526004016106e790612918565b805181602001fd5b6001600160e01b031916630a85bd0160e11b1490506113d6565b506001949350505050565b611e7c8383612120565b611e896000848484611d71565b61081c5760405162461bcd60e51b81526004016106e790612918565b606081600003611ecc5750506040805180820190915260018152600360fc1b602082015290565b8160005b8115611ef65780611ee081612868565b9150611eef9050600a836129da565b9150611ed0565b60008167ffffffffffffffff811115611f1157611f11612537565b6040519080825280601f01601f191660200182016040528015611f3b576020820181803683370190505b5090505b84156113d657611f50600183612901565b9150611f5d600a866129ee565b611f68906030612850565b60f81b818381518110611f7d57611f7d612824565b60200101906001600160f81b031916908160001a905350611f9f600a866129da565b9450611f3f565b60006001611fb384610db2565b611fbd9190612901565b6000838152600c6020526040902054909150808214612010576001600160a01b0384166000908152600b602090815260408083208584528252808320548484528184208190558352600c90915290208190555b506000918252600c602090815260408084208490556001600160a01b039094168352600b81528383209183525290812055565b600d5460009061205590600190612901565b60008381526010602052604080822054838352912054600d80549394509192909182918490811061208857612088612824565b600091825260208083209091019290925582815260109091526040808220849055858252812055600d8054806120c0576120c0612a02565b6001900381819060005260206000200160009055905550505050565b60006120e783610db2565b6001600160a01b039093166000908152600b602090815260408083208684528252808320859055938252600c9052919091209190915550565b6001600160a01b0382166121765760405162461bcd60e51b815260206004820181905260248201527f4552433732313a206d696e7420746f20746865207a65726f206164647265737360448201526064016106e7565b61217f81611489565b156121cc5760405162461bcd60e51b815260206004820152601c60248201527f4552433732313a20746f6b656e20616c7265616479206d696e7465640000000060448201526064016106e7565b6121d860008383611c12565b6001600160a01b0382166000908152600360205260408120805460019290612201908490612850565b909155505060008181526002602052604080822080546001600160a01b0319166001600160a01b03861690811790915590518392907fddf252ad1be2c89b69c2b068fc378daa952ba7f163c4a11628f55a4df523b3ef908290a45050565b6040518060800160405280600081526020016000815260200160006001600160a01b031681526020016000151581525090565b50805461229e90612799565b6000825580601f106122ae575050565b601f0160209004906000526020600020908101906114869190612350565b8280546122d890612799565b90600052602060002090601f0160209004810192826122fa5760008555612340565b82601f1061231357805160ff1916838001178555612340565b82800160010185558215612340579182015b82811115612340578251825591602001919060010190612325565b5061234c929150612350565b5090565b5b8082111561234c5760008155600101612351565b6001600160e01b03198116811461148657600080fd5b60006020828403121561238d57600080fd5b8135611c0b81612365565b60005b838110156123b357818101518382015260200161239b565b83811115610ade5750506000910152565b600081518084526123dc816020860160208601612398565b601f01601f19169290920160200192915050565b602081526000611c0b60208301846123c4565b60006020828403121561241557600080fd5b5035919050565b80356001600160a01b038116811461243357600080fd5b919050565b6000806040838503121561244b57600080fd5b6124548361241c565b946020939093013593505050565b6000806040838503121561247557600080fd5b50508035926020909101359150565b60008060006060848603121561249957600080fd5b6124a28461241c565b92506124b06020850161241c565b9150604084013590509250925092565b6020808252825182820181905260009190848201906040850190845b8181101561252b5761251883855180518252602080820151908301526040808201516001600160a01b0316908301526060908101511515910152565b92840192608092909201916001016124dc565b50909695505050505050565b634e487b7160e01b600052604160045260246000fd5b600067ffffffffffffffff8084111561256857612568612537565b604051601f8501601f19908116603f0116810190828211818310171561259057612590612537565b816040528093508581528686860111156125a957600080fd5b858560208301376000602087830101525050509392505050565b600082601f8301126125d457600080fd5b611c0b8383356020850161254d565b6000602082840312156125f557600080fd5b813567ffffffffffffffff81111561260c57600080fd5b6113d6848285016125c3565b81518152602080830151908201526040808301516001600160a01b031690820152606080830151151590820152608081016105e7565b60006020828403121561266057600080fd5b611c0b8261241c565b6000806040838503121561267c57600080fd5b6126858361241c565b91506020830135801515811461269a57600080fd5b809150509250929050565b600080600080608085870312156126bb57600080fd5b6126c48561241c565b93506126d26020860161241c565b925060408501359150606085013567ffffffffffffffff8111156126f557600080fd5b8501601f8101871361270657600080fd5b6127158782356020840161254d565b91505092959194509250565b6000806040838503121561273457600080fd5b823567ffffffffffffffff81111561274b57600080fd5b612757858286016125c3565b95602094909401359450505050565b6000806040838503121561277957600080fd5b6127828361241c565b91506127906020840161241c565b90509250929050565b600181811c908216806127ad57607f821691505b6020821081036127cd57634e487b7160e01b600052602260045260246000fd5b50919050565b60208082526031908201527f4552433732313a207472616e736665722063616c6c6572206973206e6f74206f6040820152701ddb995c881b9bdc88185c1c1c9bdd9959607a1b606082015260800190565b634e487b7160e01b600052603260045260246000fd5b634e487b7160e01b600052601160045260246000fd5b600082198211156128635761286361283a565b500190565b60006001820161287a5761287a61283a565b5060010190565b60008251612893818460208701612398565b9190910192915050565b6020808252818101527f4f776e61626c653a2063616c6c6572206973206e6f7420746865206f776e6572604082015260600190565b600083516128e4818460208801612398565b8351908301906128f8818360208801612398565b01949350505050565b6000828210156129135761291361283a565b500390565b60208082526032908201527f4552433732313a207472616e7366657220746f206e6f6e20455243373231526560408201527131b2b4bb32b91034b6b83632b6b2b73a32b960711b606082015260800190565b6001600160a01b038581168252841660208201526040810183905260806060820181905260009061299d908301846123c4565b9695505050505050565b6000602082840312156129b957600080fd5b8151611c0b81612365565b634e487b7160e01b600052601260045260246000fd5b6000826129e9576129e96129c4565b500490565b6000826129fd576129fd6129c4565b500690565b634e487b7160e01b600052603160045260246000fdfea26469706673582212206550400396569edd23f24cd7ef2f0de466be6af23cb44a98dff21d9e022b2c0364736f6c634300080d0033",
  "immutableReferences": {},
  "source": "// SPDX-License-Identifier: MIT\r\npragma solidity >=0.4.22 <0.9.0;\r\n\r\nimport \"@openzeppelin/contracts/token/ERC721/extensions/ERC721URIStorage.sol\";\r\nimport \"@openzeppelin/contracts/utils/Counters.sol\";\r\nimport \"@openzeppelin/contracts/access/Ownable.sol\";\r\n\r\ncontract NftMarket is ERC721URIStorage, Ownable {\r\n    using Counters for Counters.Counter;\r\n\r\n    // Nft\r\n    struct NftItem {\r\n        uint tokenId;\r\n        uint price;\r\n        address creator;\r\n        bool isListed;\r\n    }\r\n\r\n    // \r\n    uint public listingPrice = 0.025 ether;\r\n\r\n    // tokenIds\r\n    Counters.Counter private _tokenIds;\r\n    // _listedItems\r\n    Counters.Counter private _listedItems;\r\n\r\n    mapping(address => mapping(uint => uint)) private _ownedTokens;\r\n    mapping(uint => uint) private _idToOwnedIndex;\r\n\r\n    uint256[] private _allNfts;\r\n\r\n    // tokenURI\r\n    mapping(string => bool) private _usedTokenURIs;\r\n\r\n    // tokenIdnft\r\n    mapping(uint => NftItem) private _idToNftItem;\r\n\r\n    // tokenId  index \r\n    mapping(uint => uint) private _idToNftIndex;\r\n\r\n    // nftItem\r\n    event NftItemCreated(\r\n        uint tokenId,\r\n        uint price,\r\n        address creator,\r\n        bool isListed\r\n    );\r\n\r\n    constructor() ERC721(\"CreaturesNFT\", \"CNFT\") {}\r\n\r\n    // \r\n    function setListingPrice(uint newPrice) external onlyOwner {\r\n        require(newPrice > 0, \"Price must be at least 1 wei.\");\r\n        listingPrice = newPrice;\r\n    }\r\n\r\n    // nft\r\n    function totalSupply() public view returns (uint) {\r\n        return _allNfts.length;\r\n    }\r\n\r\n    // index  tokenId\r\n    function tokenByIndex(uint index) public view returns (uint) {\r\n        require(index < totalSupply(), \"index out of boundary\");\r\n        return _allNfts[index];\r\n    }\r\n\r\n    // index  ownedTokenId\r\n    function tokenOfOwnerIdByIndex(\r\n        address owner,\r\n        uint index\r\n    ) public view returns (uint) {\r\n        require(index < balanceOf(owner), \"index out of boundary\");\r\n        return _ownedTokens[owner][index];\r\n    }\r\n\r\n    // NFT\r\n    function getAllNftsOnSale() public view returns (NftItem[] memory) {\r\n        uint allItemsCounts = totalSupply();\r\n        uint currentIndex = 0;\r\n        NftItem[] memory items = new NftItem[](_listedItems.current());\r\n\r\n        for (uint i = 0; i < allItemsCounts; i++) {\r\n            uint tokenId = tokenByIndex(i);\r\n            NftItem storage item = _idToNftItem[tokenId];\r\n\r\n            if (item.isListed == true) {\r\n                items[currentIndex] = item;\r\n                currentIndex += 1;\r\n            }\r\n        }\r\n\r\n        return items;\r\n    }\r\n\r\n    // NFT\r\n    function getOwnedNfts() public view returns (NftItem[] memory) {\r\n        uint ownedItemsCounts = balanceOf(msg.sender);\r\n        NftItem[] memory items = new NftItem[](ownedItemsCounts);\r\n\r\n        for (uint i = 0; i < ownedItemsCounts; i++) {\r\n            uint tokenId = tokenOfOwnerIdByIndex(msg.sender, i);\r\n            NftItem storage item = _idToNftItem[tokenId];\r\n            items[i] = item;\r\n        }\r\n\r\n        return items;\r\n    }\r\n\r\n    // NFT\r\n    function buyNft(uint tokenId) public payable {\r\n        uint price = _idToNftItem[tokenId].price;\r\n        address owner = ownerOf(tokenId);\r\n\r\n        require(msg.sender != owner, \"You already have this Nft\");\r\n        require(msg.value == price, \"Please submit the asking price\");\r\n\r\n        _idToNftItem[tokenId].isListed = false;\r\n        _listedItems.decrement();\r\n\r\n        _transfer(owner, msg.sender, tokenId);\r\n        payable(owner).transfer(msg.value);\r\n    }\r\n\r\n    // NftItem\r\n    function getNftItem(uint tokenId) public view returns (NftItem memory) {\r\n        return _idToNftItem[tokenId];\r\n    }\r\n\r\n    // nftItem\r\n    function listedItemsCount() public view returns (uint) {\r\n        return _listedItems.current();\r\n    }\r\n\r\n    // tokenURI\r\n    function tokenURIExists(string memory tokenURI) public view returns (bool) {\r\n        return _usedTokenURIs[tokenURI] == true;\r\n    }\r\n\r\n    // \r\n    function burnToken(uint tokenId) public {\r\n        NftItem memory item = _idToNftItem[tokenId];\r\n        if (item.isListed == true) {\r\n            _listedItems.decrement();\r\n        }\r\n        _burn(tokenId);\r\n    }\r\n\r\n    // \r\n    function mintToken(\r\n        string memory tokenURI,\r\n        uint price\r\n    ) public payable returns (uint) {\r\n        require(!tokenURIExists(tokenURI), \"tokenURI already exists!\");\r\n        require(\r\n            msg.value == listingPrice,\r\n            \"Price must be equal to listing price\"\r\n        );\r\n\r\n        _tokenIds.increment();\r\n        _listedItems.increment();\r\n\r\n        uint newTokenId = _tokenIds.current();\r\n\r\n        _safeMint(msg.sender, newTokenId);\r\n        _setTokenURI(newTokenId, tokenURI);\r\n        _nftItemCreate(newTokenId, price);\r\n        _usedTokenURIs[tokenURI] = true;\r\n\r\n        return newTokenId;\r\n    }\r\n\r\n    // NFT\r\n    function placeNftOnSale(uint tokenId, uint newPrice) public payable {\r\n        require(\r\n            ownerOf(tokenId) == msg.sender,\r\n            \"You are not owner of this nft\"\r\n        );\r\n        require(\r\n            _idToNftItem[tokenId].isListed == false,\r\n            \"Item is already on sale\"\r\n        );\r\n        require(\r\n            msg.value == listingPrice,\r\n            \"Price myst be equal to listing price\"\r\n        );\r\n\r\n        _idToNftItem[tokenId].isListed = true;\r\n        _idToNftItem[tokenId].price = newPrice;\r\n        _listedItems.increment();\r\n    }\r\n\r\n    // nftItem\r\n    function _nftItemCreate(uint tokenId, uint price) private {\r\n        require(price > 0, \"Price must be at least 1 wei\");\r\n        _idToNftItem[tokenId] = NftItem(tokenId, price, msg.sender, true);\r\n        emit NftItemCreated(tokenId, price, msg.sender, true);\r\n    }\r\n\r\n    function _beforeTokenTransfer(\r\n        address from,\r\n        address to,\r\n        uint256 tokenId\r\n    ) internal virtual override {\r\n        super._beforeTokenTransfer(from, to, tokenId);\r\n\r\n        if (from == address(0)) {\r\n            _addTokenToAllTokensEnumeration(tokenId);\r\n        } else if (from != to) {\r\n            _removeTokenFromOwnerEnumeration(from, tokenId);\r\n        }\r\n\r\n        if (to == address(0)) {\r\n            _removeTokenFromAllTokensEnumeration(tokenId);\r\n        } else if (to != from) {\r\n            _addTokenToOwnerEnumeration(to, tokenId);\r\n        }\r\n    }\r\n\r\n    function _addTokenToAllTokensEnumeration(uint tokenId) private {\r\n        _idToNftIndex[tokenId] = _allNfts.length;\r\n        _allNfts.push(tokenId);\r\n    }\r\n\r\n    function _addTokenToOwnerEnumeration(address to, uint tokenId) private {\r\n        uint256 length = balanceOf(to);\r\n        _ownedTokens[to][length] = tokenId;\r\n        _idToOwnedIndex[tokenId] = length;\r\n    }\r\n\r\n    function _removeTokenFromOwnerEnumeration(\r\n        address from,\r\n        uint tokenId\r\n    ) private {\r\n        uint lastTokenIndex = balanceOf(from) - 1;\r\n        uint tokenIndex = _idToOwnedIndex[tokenId];\r\n\r\n        if (tokenIndex != lastTokenIndex) {\r\n            uint lastTokenId = _ownedTokens[from][lastTokenIndex];\r\n\r\n            _ownedTokens[from][tokenIndex] = lastTokenId;\r\n            _idToOwnedIndex[lastTokenId] = tokenIndex;\r\n        }\r\n\r\n        delete _idToOwnedIndex[tokenId];\r\n        delete _ownedTokens[from][lastTokenIndex];\r\n    }\r\n\r\n    function _removeTokenFromAllTokensEnumeration(uint tokenId) private {\r\n        uint lastTokenIndex = _allNfts.length - 1;\r\n        uint tokenIndex = _idToNftIndex[tokenId];\r\n        uint lastTokenId = _idToNftIndex[lastTokenIndex];\r\n\r\n        _allNfts[tokenIndex] = lastTokenId;\r\n        _idToNftIndex[lastTokenId] = tokenIndex;\r\n\r\n        delete _idToNftIndex[tokenId];\r\n        _allNfts.pop();\r\n    }\r\n}\r\n",
  "sourcePath": "E:\\blockchainPro\\nft-market\\contracts\\NftMarket.sol",
  "compiler": {
    "name": "solc",
    "version": "0.8.13+commit.abaa5c0e.Emscripten.clang"
  },
  "schemaVersion": "3.4.16",
  "updatedAt": "2024-08-31T13:27:39.139Z",
  "networkType": "ethereum",
  "devdoc": {
    "kind": "dev",
    "methods": {
      "approve(address,uint256)": {
        "details": "See {IERC721-approve}."
      },
      "balanceOf(address)": {
        "details": "See {IERC721-balanceOf}."
      },
      "getApproved(uint256)": {
        "details": "See {IERC721-getApproved}."
      },
      "isApprovedForAll(address,address)": {
        "details": "See {IERC721-isApprovedForAll}."
      },
      "name()": {
        "details": "See {IERC721Metadata-name}."
      },
      "owner()": {
        "details": "Returns the address of the current owner."
      },
      "ownerOf(uint256)": {
        "details": "See {IERC721-ownerOf}."
      },
      "renounceOwnership()": {
        "details": "Leaves the contract without owner. It will not be possible to call `onlyOwner` functions anymore. Can only be called by the current owner. NOTE: Renouncing ownership will leave the contract without an owner, thereby removing any functionality that is only available to the owner."
      },
      "safeTransferFrom(address,address,uint256)": {
        "details": "See {IERC721-safeTransferFrom}."
      },
      "safeTransferFrom(address,address,uint256,bytes)": {
        "details": "See {IERC721-safeTransferFrom}."
      },
      "setApprovalForAll(address,bool)": {
        "details": "See {IERC721-setApprovalForAll}."
      },
      "supportsInterface(bytes4)": {
        "details": "See {IERC165-supportsInterface}."
      },
      "symbol()": {
        "details": "See {IERC721Metadata-symbol}."
      },
      "tokenURI(uint256)": {
        "details": "See {IERC721Metadata-tokenURI}."
      },
      "transferFrom(address,address,uint256)": {
        "details": "See {IERC721-transferFrom}."
      },
      "transferOwnership(address)": {
        "details": "Transfers ownership of the contract to a new account (`newOwner`). Can only be called by the current owner."
      }
    },
    "version": 1
  },
  "userdoc": {
    "kind": "user",
    "methods": {},
    "version": 1
  }
}