{
  "contractName": "NftMarket",
  "abi": [
    {
      "inputs": [],
      "stateMutability": "nonpayable",
      "type": "constructor"
    },
    {
      "anonymous": false,
      "inputs": [
        {
          "indexed": true,
          "internalType": "address",
          "name": "owner",
          "type": "address"
        },
        {
          "indexed": true,
          "internalType": "address",
          "name": "approved",
          "type": "address"
        },
        {
          "indexed": true,
          "internalType": "uint256",
          "name": "tokenId",
          "type": "uint256"
        }
      ],
      "name": "Approval",
      "type": "event"
    },
    {
      "anonymous": false,
      "inputs": [
        {
          "indexed": true,
          "internalType": "address",
          "name": "owner",
          "type": "address"
        },
        {
          "indexed": true,
          "internalType": "address",
          "name": "operator",
          "type": "address"
        },
        {
          "indexed": false,
          "internalType": "bool",
          "name": "approved",
          "type": "bool"
        }
      ],
      "name": "ApprovalForAll",
      "type": "event"
    },
    {
      "anonymous": false,
      "inputs": [
        {
          "indexed": false,
          "internalType": "uint256",
          "name": "tokenId",
          "type": "uint256"
        },
        {
          "indexed": false,
          "internalType": "uint256",
          "name": "price",
          "type": "uint256"
        },
        {
          "indexed": false,
          "internalType": "address",
          "name": "creator",
          "type": "address"
        },
        {
          "indexed": false,
          "internalType": "bool",
          "name": "isListed",
          "type": "bool"
        }
      ],
      "name": "NftItemCreated",
      "type": "event"
    },
    {
      "anonymous": false,
      "inputs": [
        {
          "indexed": true,
          "internalType": "address",
          "name": "previousOwner",
          "type": "address"
        },
        {
          "indexed": true,
          "internalType": "address",
          "name": "newOwner",
          "type": "address"
        }
      ],
      "name": "OwnershipTransferred",
      "type": "event"
    },
    {
      "anonymous": false,
      "inputs": [
        {
          "indexed": true,
          "internalType": "address",
          "name": "from",
          "type": "address"
        },
        {
          "indexed": true,
          "internalType": "address",
          "name": "to",
          "type": "address"
        },
        {
          "indexed": true,
          "internalType": "uint256",
          "name": "tokenId",
          "type": "uint256"
        }
      ],
      "name": "Transfer",
      "type": "event"
    },
    {
      "inputs": [
        {
          "internalType": "address",
          "name": "to",
          "type": "address"
        },
        {
          "internalType": "uint256",
          "name": "tokenId",
          "type": "uint256"
        }
      ],
      "name": "approve",
      "outputs": [],
      "stateMutability": "nonpayable",
      "type": "function"
    },
    {
      "inputs": [
        {
          "internalType": "address",
          "name": "owner",
          "type": "address"
        }
      ],
      "name": "balanceOf",
      "outputs": [
        {
          "internalType": "uint256",
          "name": "",
          "type": "uint256"
        }
      ],
      "stateMutability": "view",
      "type": "function",
      "constant": true
    },
    {
      "inputs": [
        {
          "internalType": "uint256",
          "name": "tokenId",
          "type": "uint256"
        }
      ],
      "name": "getApproved",
      "outputs": [
        {
          "internalType": "address",
          "name": "",
          "type": "address"
        }
      ],
      "stateMutability": "view",
      "type": "function",
      "constant": true
    },
    {
      "inputs": [
        {
          "internalType": "address",
          "name": "owner",
          "type": "address"
        },
        {
          "internalType": "address",
          "name": "operator",
          "type": "address"
        }
      ],
      "name": "isApprovedForAll",
      "outputs": [
        {
          "internalType": "bool",
          "name": "",
          "type": "bool"
        }
      ],
      "stateMutability": "view",
      "type": "function",
      "constant": true
    },
    {
      "inputs": [],
      "name": "listingPrice",
      "outputs": [
        {
          "internalType": "uint256",
          "name": "",
          "type": "uint256"
        }
      ],
      "stateMutability": "view",
      "type": "function",
      "constant": true
    },
    {
      "inputs": [],
      "name": "name",
      "outputs": [
        {
          "internalType": "string",
          "name": "",
          "type": "string"
        }
      ],
      "stateMutability": "view",
      "type": "function",
      "constant": true
    },
    {
      "inputs": [],
      "name": "owner",
      "outputs": [
        {
          "internalType": "address",
          "name": "",
          "type": "address"
        }
      ],
      "stateMutability": "view",
      "type": "function",
      "constant": true
    },
    {
      "inputs": [
        {
          "internalType": "uint256",
          "name": "tokenId",
          "type": "uint256"
        }
      ],
      "name": "ownerOf",
      "outputs": [
        {
          "internalType": "address",
          "name": "",
          "type": "address"
        }
      ],
      "stateMutability": "view",
      "type": "function",
      "constant": true
    },
    {
      "inputs": [],
      "name": "renounceOwnership",
      "outputs": [],
      "stateMutability": "nonpayable",
      "type": "function"
    },
    {
      "inputs": [
        {
          "internalType": "address",
          "name": "from",
          "type": "address"
        },
        {
          "internalType": "address",
          "name": "to",
          "type": "address"
        },
        {
          "internalType": "uint256",
          "name": "tokenId",
          "type": "uint256"
        }
      ],
      "name": "safeTransferFrom",
      "outputs": [],
      "stateMutability": "nonpayable",
      "type": "function"
    },
    {
      "inputs": [
        {
          "internalType": "address",
          "name": "from",
          "type": "address"
        },
        {
          "internalType": "address",
          "name": "to",
          "type": "address"
        },
        {
          "internalType": "uint256",
          "name": "tokenId",
          "type": "uint256"
        },
        {
          "internalType": "bytes",
          "name": "_data",
          "type": "bytes"
        }
      ],
      "name": "safeTransferFrom",
      "outputs": [],
      "stateMutability": "nonpayable",
      "type": "function"
    },
    {
      "inputs": [
        {
          "internalType": "address",
          "name": "operator",
          "type": "address"
        },
        {
          "internalType": "bool",
          "name": "approved",
          "type": "bool"
        }
      ],
      "name": "setApprovalForAll",
      "outputs": [],
      "stateMutability": "nonpayable",
      "type": "function"
    },
    {
      "inputs": [
        {
          "internalType": "bytes4",
          "name": "interfaceId",
          "type": "bytes4"
        }
      ],
      "name": "supportsInterface",
      "outputs": [
        {
          "internalType": "bool",
          "name": "",
          "type": "bool"
        }
      ],
      "stateMutability": "view",
      "type": "function",
      "constant": true
    },
    {
      "inputs": [],
      "name": "symbol",
      "outputs": [
        {
          "internalType": "string",
          "name": "",
          "type": "string"
        }
      ],
      "stateMutability": "view",
      "type": "function",
      "constant": true
    },
    {
      "inputs": [
        {
          "internalType": "uint256",
          "name": "tokenId",
          "type": "uint256"
        }
      ],
      "name": "tokenURI",
      "outputs": [
        {
          "internalType": "string",
          "name": "",
          "type": "string"
        }
      ],
      "stateMutability": "view",
      "type": "function",
      "constant": true
    },
    {
      "inputs": [
        {
          "internalType": "address",
          "name": "from",
          "type": "address"
        },
        {
          "internalType": "address",
          "name": "to",
          "type": "address"
        },
        {
          "internalType": "uint256",
          "name": "tokenId",
          "type": "uint256"
        }
      ],
      "name": "transferFrom",
      "outputs": [],
      "stateMutability": "nonpayable",
      "type": "function"
    },
    {
      "inputs": [
        {
          "internalType": "address",
          "name": "newOwner",
          "type": "address"
        }
      ],
      "name": "transferOwnership",
      "outputs": [],
      "stateMutability": "nonpayable",
      "type": "function"
    },
    {
      "inputs": [
        {
          "internalType": "uint256",
          "name": "newPrice",
          "type": "uint256"
        }
      ],
      "name": "setListingPrice",
      "outputs": [],
      "stateMutability": "nonpayable",
      "type": "function"
    },
    {
      "inputs": [],
      "name": "totalSupply",
      "outputs": [
        {
          "internalType": "uint256",
          "name": "",
          "type": "uint256"
        }
      ],
      "stateMutability": "view",
      "type": "function",
      "constant": true
    },
    {
      "inputs": [
        {
          "internalType": "uint256",
          "name": "index",
          "type": "uint256"
        }
      ],
      "name": "tokenByIndex",
      "outputs": [
        {
          "internalType": "uint256",
          "name": "",
          "type": "uint256"
        }
      ],
      "stateMutability": "view",
      "type": "function",
      "constant": true
    },
    {
      "inputs": [
        {
          "internalType": "address",
          "name": "owner",
          "type": "address"
        },
        {
          "internalType": "uint256",
          "name": "index",
          "type": "uint256"
        }
      ],
      "name": "tokenOfOwnerIdByIndex",
      "outputs": [
        {
          "internalType": "uint256",
          "name": "",
          "type": "uint256"
        }
      ],
      "stateMutability": "view",
      "type": "function",
      "constant": true
    },
    {
      "inputs": [],
      "name": "getAllNftsOnSale",
      "outputs": [
        {
          "components": [
            {
              "internalType": "uint256",
              "name": "tokenId",
              "type": "uint256"
            },
            {
              "internalType": "uint256",
              "name": "price",
              "type": "uint256"
            },
            {
              "internalType": "address",
              "name": "creator",
              "type": "address"
            },
            {
              "internalType": "bool",
              "name": "isListed",
              "type": "bool"
            }
          ],
          "internalType": "struct NftMarket.NftItem[]",
          "name": "",
          "type": "tuple[]"
        }
      ],
      "stateMutability": "view",
      "type": "function",
      "constant": true
    },
    {
      "inputs": [],
      "name": "getOwnedNfts",
      "outputs": [
        {
          "components": [
            {
              "internalType": "uint256",
              "name": "tokenId",
              "type": "uint256"
            },
            {
              "internalType": "uint256",
              "name": "price",
              "type": "uint256"
            },
            {
              "internalType": "address",
              "name": "creator",
              "type": "address"
            },
            {
              "internalType": "bool",
              "name": "isListed",
              "type": "bool"
            }
          ],
          "internalType": "struct NftMarket.NftItem[]",
          "name": "",
          "type": "tuple[]"
        }
      ],
      "stateMutability": "view",
      "type": "function",
      "constant": true
    },
    {
      "inputs": [
        {
          "internalType": "uint256",
          "name": "tokenId",
          "type": "uint256"
        }
      ],
      "name": "buyNft",
      "outputs": [],
      "stateMutability": "payable",
      "type": "function",
      "payable": true
    },
    {
      "inputs": [
        {
          "internalType": "uint256",
          "name": "tokenId",
          "type": "uint256"
        }
      ],
      "name": "getNftItem",
      "outputs": [
        {
          "components": [
            {
              "internalType": "uint256",
              "name": "tokenId",
              "type": "uint256"
            },
            {
              "internalType": "uint256",
              "name": "price",
              "type": "uint256"
            },
            {
              "internalType": "address",
              "name": "creator",
              "type": "address"
            },
            {
              "internalType": "bool",
              "name": "isListed",
              "type": "bool"
            }
          ],
          "internalType": "struct NftMarket.NftItem",
          "name": "",
          "type": "tuple"
        }
      ],
      "stateMutability": "view",
      "type": "function",
      "constant": true
    },
    {
      "inputs": [],
      "name": "listedItemsCount",
      "outputs": [
        {
          "internalType": "uint256",
          "name": "",
          "type": "uint256"
        }
      ],
      "stateMutability": "view",
      "type": "function",
      "constant": true
    },
    {
      "inputs": [
        {
          "internalType": "string",
          "name": "tokenURI",
          "type": "string"
        }
      ],
      "name": "tokenURIExists",
      "outputs": [
        {
          "internalType": "bool",
          "name": "",
          "type": "bool"
        }
      ],
      "stateMutability": "view",
      "type": "function",
      "constant": true
    },
    {
      "inputs": [
        {
          "internalType": "uint256",
          "name": "tokenId",
          "type": "uint256"
        }
      ],
      "name": "burnToken",
      "outputs": [],
      "stateMutability": "nonpayable",
      "type": "function"
    },
    {
      "inputs": [
        {
          "internalType": "string",
          "name": "tokenURI",
          "type": "string"
        },
        {
          "internalType": "uint256",
          "name": "price",
          "type": "uint256"
        }
      ],
      "name": "mintToken",
      "outputs": [
        {
          "internalType": "uint256",
          "name": "",
          "type": "uint256"
        }
      ],
      "stateMutability": "payable",
      "type": "function",
      "payable": true
    },
    {
      "inputs": [
        {
          "internalType": "uint256",
          "name": "tokenId",
          "type": "uint256"
        },
        {
          "internalType": "uint256",
          "name": "newPrice",
          "type": "uint256"
        }
      ],
      "name": "placeNftOnSale",
      "outputs": [],
      "stateMutability": "payable",
      "type": "function",
      "payable": true
    },
    {
      "inputs": [
        {
          "internalType": "uint256",
          "name": "tokenId",
          "type": "uint256"
        }
      ],
      "name": "cancelNftOnSale",
      "outputs": [],
      "stateMutability": "payable",
      "type": "function",
      "payable": true
    }
  ],
  "bytecode": "0x60806040526658d15e176280006008553480156200001c57600080fd5b50604080518082018252600c81526b10dc99585d1d5c995cd3919560a21b60208083019182528351808501909452600484526310d3919560e21b9084015281519192916200006d91600091620000fc565b50805162000083906001906020840190620000fc565b505050620000a06200009a620000a660201b60201c565b620000aa565b620001de565b3390565b600780546001600160a01b038381166001600160a01b0319831681179093556040519116919082907f8be0079c531659141344cd1fd0a4f28419497f9722a3daafe3b4186f6b6457e090600090a35050565b8280546200010a90620001a2565b90600052602060002090601f0160209004810192826200012e576000855562000179565b82601f106200014957805160ff191683800117855562000179565b8280016001018555821562000179579182015b82811115620001795782518255916020019190600101906200015c565b50620001879291506200018b565b5090565b5b808211156200018757600081556001016200018c565b600181811c90821680620001b757607f821691505b602082108103620001d857634e487b7160e01b600052602260045260246000fd5b50919050565b612bc780620001ee6000396000f3fe6080604052600436106101d85760003560e01c806370cbcb4311610102578063b88d4fde11610095578063c87b56dd11610064578063c87b56dd1461051b578063ccb4918d1461053b578063e985e9c514610550578063f2fde38b1461059957600080fd5b8063b88d4fde146104bf578063c046372c146104df578063c5c889b0146104f2578063c78f19f91461050557600080fd5b80638da5cb5b116100d15780638da5cb5b1461044c57806395d89b411461046a578063a09aa96c1461047f578063a22cb4651461049f57600080fd5b806370cbcb43146103e2578063715018a6146103f75780637b47ec1a1461040c5780637c726b691461042c57600080fd5b8063243adbdd1161017a5780634f6ccce7116101495780634f6ccce7146103555780636352211e146103755780636f1a0af51461039557806370a08231146103c257600080fd5b8063243adbdd146102e057806336b536be146102f357806342842e0e1461031557806343d32ae71461033557600080fd5b8063095ea7b3116101b6578063095ea7b31461026c57806318160ddd1461028e57806321f422e5146102ad57806323b872dd146102c057600080fd5b806301ffc9a7146101dd57806306fdde0314610212578063081812fc14610234575b600080fd5b3480156101e957600080fd5b506101fd6101f83660046124d5565b6105b9565b60405190151581526020015b60405180910390f35b34801561021e57600080fd5b5061022761060b565b604051610209919061254a565b34801561024057600080fd5b5061025461024f36600461255d565b61069d565b6040516001600160a01b039091168152602001610209565b34801561027857600080fd5b5061028c610287366004612592565b61072a565b005b34801561029a57600080fd5b50600d545b604051908152602001610209565b61028c6102bb3660046125bc565b61083f565b3480156102cc57600080fd5b5061028c6102db3660046125de565b6109a0565b61028c6102ee36600461255d565b6109d1565b3480156102ff57600080fd5b50610308610b02565b604051610209919061261a565b34801561032157600080fd5b5061028c6103303660046125de565b610c3b565b34801561034157600080fd5b506101fd61035036600461273d565b610c56565b34801561036157600080fd5b5061029f61037036600461255d565b610c86565b34801561038157600080fd5b5061025461039036600461255d565b610cfc565b3480156103a157600080fd5b506103b56103b036600461255d565b610d73565b6040516102099190612772565b3480156103ce57600080fd5b5061029f6103dd3660046127a8565b610dd0565b3480156103ee57600080fd5b50610308610e57565b34801561040357600080fd5b5061028c610f66565b34801561041857600080fd5b5061028c61042736600461255d565b610f9c565b34801561043857600080fd5b5061028c61044736600461255d565b61100b565b34801561045857600080fd5b506007546001600160a01b0316610254565b34801561047657600080fd5b5061022761108a565b34801561048b57600080fd5b5061029f61049a366004612592565b611099565b3480156104ab57600080fd5b5061028c6104ba3660046127c3565b611113565b3480156104cb57600080fd5b5061028c6104da3660046127ff565b61111e565b61029f6104ed36600461287b565b611150565b61028c61050036600461255d565b611286565b34801561051157600080fd5b5061029f60085481565b34801561052757600080fd5b5061022761053636600461255d565b6113c2565b34801561054757600080fd5b5061029f611538565b34801561055c57600080fd5b506101fd61056b3660046128c0565b6001600160a01b03918216600090815260056020908152604080832093909416825291909152205460ff1690565b3480156105a557600080fd5b5061028c6105b43660046127a8565b611548565b60006001600160e01b031982166380ac58cd60e01b14806105ea57506001600160e01b03198216635b5e139f60e01b145b8061060557506301ffc9a760e01b6001600160e01b03198316145b92915050565b60606000805461061a906128f3565b80601f0160208091040260200160405190810160405280929190818152602001828054610646906128f3565b80156106935780601f1061066857610100808354040283529160200191610693565b820191906000526020600020905b81548152906001019060200180831161067657829003601f168201915b5050505050905090565b60006106a8826115e3565b61070e5760405162461bcd60e51b815260206004820152602c60248201527f4552433732313a20617070726f76656420717565727920666f72206e6f6e657860448201526b34b9ba32b73a103a37b5b2b760a11b60648201526084015b60405180910390fd5b506000908152600460205260409020546001600160a01b031690565b600061073582610cfc565b9050806001600160a01b0316836001600160a01b0316036107a25760405162461bcd60e51b815260206004820152602160248201527f4552433732313a20617070726f76616c20746f2063757272656e74206f776e656044820152603960f91b6064820152608401610705565b336001600160a01b03821614806107be57506107be813361056b565b6108305760405162461bcd60e51b815260206004820152603860248201527f4552433732313a20617070726f76652063616c6c6572206973206e6f74206f7760448201527f6e6572206e6f7220617070726f76656420666f7220616c6c00000000000000006064820152608401610705565b61083a8383611600565b505050565b3361084983610cfc565b6001600160a01b03161461089f5760405162461bcd60e51b815260206004820152601d60248201527f596f7520617265206e6f74206f776e6572206f662074686973206e66740000006044820152606401610705565b6000828152600f6020526040902060020154600160a01b900460ff16156109085760405162461bcd60e51b815260206004820152601760248201527f4974656d20697320616c7265616479206f6e2073616c650000000000000000006044820152606401610705565b60085434146109655760405162461bcd60e51b8152602060048201526024808201527f5072696365206d79737420626520657175616c20746f206c697374696e6720706044820152637269636560e01b6064820152608401610705565b6000828152600f6020526040902060028101805460ff60a01b1916600160a01b17905560010181905561099c600a80546001019055565b5050565b6109aa338261166e565b6109c65760405162461bcd60e51b81526004016107059061292d565b61083a838383611754565b6000818152600f6020526040812060010154906109ed83610cfc565b90506001600160a01b0381163303610a475760405162461bcd60e51b815260206004820152601960248201527f596f7520616c726561647920686176652074686973204e6674000000000000006044820152606401610705565b813414610a965760405162461bcd60e51b815260206004820152601e60248201527f506c65617365207375626d6974207468652061736b696e6720707269636500006044820152606401610705565b6000838152600f60205260409020600201805460ff60a01b19169055610abc600a6118fb565b610ac7813385611754565b6040516001600160a01b038216903480156108fc02916000818181858888f19350505050158015610afc573d6000803e3d6000fd5b50505050565b60606000610b0f600d5490565b9050600080610b1d600a5490565b67ffffffffffffffff811115610b3557610b35612691565b604051908082528060200260200182016040528015610b6e57816020015b610b5b6123b9565b815260200190600190039081610b535790505b50905060005b83811015610c33576000610b8782610c86565b6000818152600f60205260409020600281015491925090600160a01b900460ff161515600103610c1e5760408051608081018252825481526001830154602082015260028301546001600160a01b03811692820192909252600160a01b90910460ff16151560608201528451859087908110610c0557610c0561297e565b6020908102919091010152610c1b6001866129aa565b94505b50508080610c2b906129c2565b915050610b74565b509392505050565b61083a8383836040518060200160405280600081525061111e565b6000600e82604051610c6891906129db565b9081526040519081900360200190205460ff16151560011492915050565b6000610c91600d5490565b8210610cd75760405162461bcd60e51b8152602060048201526015602482015274696e646578206f7574206f6620626f756e6461727960581b6044820152606401610705565b600d8281548110610cea57610cea61297e565b90600052602060002001549050919050565b6000818152600260205260408120546001600160a01b0316806106055760405162461bcd60e51b815260206004820152602960248201527f4552433732313a206f776e657220717565727920666f72206e6f6e657869737460448201526832b73a103a37b5b2b760b91b6064820152608401610705565b610d7b6123b9565b506000908152600f6020908152604091829020825160808101845281548152600182015492810192909252600201546001600160a01b03811692820192909252600160a01b90910460ff161515606082015290565b60006001600160a01b038216610e3b5760405162461bcd60e51b815260206004820152602a60248201527f4552433732313a2062616c616e636520717565727920666f7220746865207a65604482015269726f206164647265737360b01b6064820152608401610705565b506001600160a01b031660009081526003602052604090205490565b60606000610e6433610dd0565b905060008167ffffffffffffffff811115610e8157610e81612691565b604051908082528060200260200182016040528015610eba57816020015b610ea76123b9565b815260200190600190039081610e9f5790505b50905060005b82811015610f5f576000610ed43383611099565b6000818152600f602090815260409182902082516080810184528154815260018201549281019290925260028101546001600160a01b03811693830193909352600160a01b90920460ff161515606082015285519293509091859085908110610f3f57610f3f61297e565b602002602001018190525050508080610f57906129c2565b915050610ec0565b5092915050565b6007546001600160a01b03163314610f905760405162461bcd60e51b8152600401610705906129f7565b610f9a6000611952565b565b6000818152600f6020908152604091829020825160808101845281548152600180830154938201939093526002909101546001600160a01b03811693820193909352600160a01b90920460ff16151560608301819052900361100257611002600a6118fb565b61099c826119a4565b6007546001600160a01b031633146110355760405162461bcd60e51b8152600401610705906129f7565b600081116110855760405162461bcd60e51b815260206004820152601d60248201527f5072696365206d757374206265206174206c656173742031207765692e0000006044820152606401610705565b600855565b60606001805461061a906128f3565b60006110a483610dd0565b82106110ea5760405162461bcd60e51b8152602060048201526015602482015274696e646578206f7574206f6620626f756e6461727960581b6044820152606401610705565b506001600160a01b03919091166000908152600b60209081526040808320938352929052205490565b61099c3383836119e4565b611128338361166e565b6111445760405162461bcd60e51b81526004016107059061292d565b610afc84848484611ab2565b600061115b83610c56565b156111a85760405162461bcd60e51b815260206004820152601860248201527f746f6b656e55524920616c7265616479206578697374732100000000000000006044820152606401610705565b60085434146112055760405162461bcd60e51b8152602060048201526024808201527f5072696365206d75737420626520657175616c20746f206c697374696e6720706044820152637269636560e01b6064820152608401610705565b611213600980546001019055565b611221600a80546001019055565b600061122c60095490565b90506112383382611ae5565b6112428185611aff565b61124c8184611b8a565b6001600e8560405161125e91906129db565b908152604051908190036020019020805491151560ff19909216919091179055905092915050565b3361129082610cfc565b6001600160a01b0316146112e65760405162461bcd60e51b815260206004820152601d60248201527f596f7520617265206e6f74206f776e6572206f662074686973206e66740000006044820152606401610705565b6000818152600f6020526040902060020154600160a01b900460ff1615156001146113495760405162461bcd60e51b81526020600482015260136024820152724974656d206973206e6f74206f6e2073616c6560681b6044820152606401610705565b60006064600854605061135c9190612a2c565b6113669190612a61565b604051909150339082156108fc029083906000818181858888f19350505050158015611396573d6000803e3d6000fd5b506000828152600f6020526040812060028101805460ff60a01b191690556001015561099c600a6118fb565b60606113cd826115e3565b6114335760405162461bcd60e51b815260206004820152603160248201527f45524337323155524953746f726167653a2055524920717565727920666f72206044820152703737b732bc34b9ba32b73a103a37b5b2b760791b6064820152608401610705565b6000828152600660205260408120805461144c906128f3565b80601f0160208091040260200160405190810160405280929190818152602001828054611478906128f3565b80156114c55780601f1061149a576101008083540402835291602001916114c5565b820191906000526020600020905b8154815290600101906020018083116114a857829003601f168201915b5050505050905060006114e360408051602081019091526000815290565b905080516000036114f5575092915050565b81511561152757808260405160200161150f929190612a75565b60405160208183030381529060405292505050919050565b61153084611c94565b949350505050565b6000611543600a5490565b905090565b6007546001600160a01b031633146115725760405162461bcd60e51b8152600401610705906129f7565b6001600160a01b0381166115d75760405162461bcd60e51b815260206004820152602660248201527f4f776e61626c653a206e6577206f776e657220697320746865207a65726f206160448201526564647265737360d01b6064820152608401610705565b6115e081611952565b50565b6000908152600260205260409020546001600160a01b0316151590565b600081815260046020526040902080546001600160a01b0319166001600160a01b038416908117909155819061163582610cfc565b6001600160a01b03167f8c5be1e5ebec7d5bd14f71427d1e84f3dd0314c0f7b2291e5b200ac8c7c3b92560405160405180910390a45050565b6000611679826115e3565b6116da5760405162461bcd60e51b815260206004820152602c60248201527f4552433732313a206f70657261746f7220717565727920666f72206e6f6e657860448201526b34b9ba32b73a103a37b5b2b760a11b6064820152608401610705565b60006116e583610cfc565b9050806001600160a01b0316846001600160a01b031614806117205750836001600160a01b03166117158461069d565b6001600160a01b0316145b8061153057506001600160a01b0380821660009081526005602090815260408083209388168352929052205460ff16611530565b826001600160a01b031661176782610cfc565b6001600160a01b0316146117cb5760405162461bcd60e51b815260206004820152602560248201527f4552433732313a207472616e736665722066726f6d20696e636f72726563742060448201526437bbb732b960d91b6064820152608401610705565b6001600160a01b03821661182d5760405162461bcd60e51b8152602060048201526024808201527f4552433732313a207472616e7366657220746f20746865207a65726f206164646044820152637265737360e01b6064820152608401610705565b611838838383611d6c565b611843600082611600565b6001600160a01b038316600090815260036020526040812080546001929061186c908490612aa4565b90915550506001600160a01b038216600090815260036020526040812080546001929061189a9084906129aa565b909155505060008181526002602052604080822080546001600160a01b0319166001600160a01b0386811691821790925591518493918716917fddf252ad1be2c89b69c2b068fc378daa952ba7f163c4a11628f55a4df523b3ef91a4505050565b80548061194a5760405162461bcd60e51b815260206004820152601b60248201527f436f756e7465723a2064656372656d656e74206f766572666c6f7700000000006044820152606401610705565b600019019055565b600780546001600160a01b038381166001600160a01b0319831681179093556040519116919082907f8be0079c531659141344cd1fd0a4f28419497f9722a3daafe3b4186f6b6457e090600090a35050565b6119ad81611e24565b600081815260066020526040902080546119c6906128f3565b1590506115e05760008181526006602052604081206115e0916123ec565b816001600160a01b0316836001600160a01b031603611a455760405162461bcd60e51b815260206004820152601960248201527f4552433732313a20617070726f766520746f2063616c6c6572000000000000006044820152606401610705565b6001600160a01b03838116600081815260056020908152604080832094871680845294825291829020805460ff191686151590811790915591519182527f17307eab39ab6107e8899845ad3d59bd9653f200f220920489ca2b5937696c31910160405180910390a3505050565b611abd848484611754565b611ac984848484611ecb565b610afc5760405162461bcd60e51b815260040161070590612abb565b61099c828260405180602001604052806000815250611fcc565b611b08826115e3565b611b6b5760405162461bcd60e51b815260206004820152602e60248201527f45524337323155524953746f726167653a2055524920736574206f66206e6f6e60448201526d32bc34b9ba32b73a103a37b5b2b760911b6064820152608401610705565b6000828152600660209081526040909120825161083a92840190612426565b60008111611bda5760405162461bcd60e51b815260206004820152601c60248201527f5072696365206d757374206265206174206c65617374203120776569000000006044820152606401610705565b60408051608080820183528482526020808301858152338486018181526001606080880182815260008c8152600f88528a90209851895594518883015591516002909701805494511515600160a01b026001600160a81b03199095166001600160a01b039098169790971793909317909555855188815292830187905294820194909452918201929092527f470031062672bc0246e132c723a729c4676710ec663a29e86c88678032daddea910160405180910390a15050565b6060611c9f826115e3565b611d035760405162461bcd60e51b815260206004820152602f60248201527f4552433732314d657461646174613a2055524920717565727920666f72206e6f60448201526e3732bc34b9ba32b73a103a37b5b2b760891b6064820152608401610705565b6000611d1a60408051602081019091526000815290565b90506000815111611d3a5760405180602001604052806000815250611d65565b80611d4484611fff565b604051602001611d55929190612a75565b6040516020818303038152906040525b9392505050565b6001600160a01b038316611dc757611dc281600d80546000838152601060205260408120829055600182018355919091527fd7b6990105719101dabeb77144f2a3385c8033acd3af97e9423a695e81ad1eb50155565b611dea565b816001600160a01b0316836001600160a01b031614611dea57611dea8382612100565b6001600160a01b038216611e015761083a8161219d565b826001600160a01b0316826001600160a01b03161461083a5761083a8282612236565b6000611e2f82610cfc565b9050611e3d81600084611d6c565b611e48600083611600565b6001600160a01b0381166000908152600360205260408120805460019290611e71908490612aa4565b909155505060008281526002602052604080822080546001600160a01b0319169055518391906001600160a01b038416907fddf252ad1be2c89b69c2b068fc378daa952ba7f163c4a11628f55a4df523b3ef908390a45050565b60006001600160a01b0384163b15611fc157604051630a85bd0160e11b81526001600160a01b0385169063150b7a0290611f0f903390899088908890600401612b0d565b6020604051808303816000875af1925050508015611f4a575060408051601f3d908101601f19168201909252611f4791810190612b4a565b60015b611fa7573d808015611f78576040519150601f19603f3d011682016040523d82523d6000602084013e611f7d565b606091505b508051600003611f9f5760405162461bcd60e51b815260040161070590612abb565b805181602001fd5b6001600160e01b031916630a85bd0160e11b149050611530565b506001949350505050565b611fd6838361227a565b611fe36000848484611ecb565b61083a5760405162461bcd60e51b815260040161070590612abb565b6060816000036120265750506040805180820190915260018152600360fc1b602082015290565b8160005b8115612050578061203a816129c2565b91506120499050600a83612a61565b915061202a565b60008167ffffffffffffffff81111561206b5761206b612691565b6040519080825280601f01601f191660200182016040528015612095576020820181803683370190505b5090505b8415611530576120aa600183612aa4565b91506120b7600a86612b67565b6120c29060306129aa565b60f81b8183815181106120d7576120d761297e565b60200101906001600160f81b031916908160001a9053506120f9600a86612a61565b9450612099565b6000600161210d84610dd0565b6121179190612aa4565b6000838152600c602052604090205490915080821461216a576001600160a01b0384166000908152600b602090815260408083208584528252808320548484528184208190558352600c90915290208190555b506000918252600c602090815260408084208490556001600160a01b039094168352600b81528383209183525290812055565b600d546000906121af90600190612aa4565b60008381526010602052604080822054838352912054600d8054939450919290918291849081106121e2576121e261297e565b600091825260208083209091019290925582815260109091526040808220849055858252812055600d80548061221a5761221a612b7b565b6001900381819060005260206000200160009055905550505050565b600061224183610dd0565b6001600160a01b039093166000908152600b602090815260408083208684528252808320859055938252600c9052919091209190915550565b6001600160a01b0382166122d05760405162461bcd60e51b815260206004820181905260248201527f4552433732313a206d696e7420746f20746865207a65726f20616464726573736044820152606401610705565b6122d9816115e3565b156123265760405162461bcd60e51b815260206004820152601c60248201527f4552433732313a20746f6b656e20616c7265616479206d696e746564000000006044820152606401610705565b61233260008383611d6c565b6001600160a01b038216600090815260036020526040812080546001929061235b9084906129aa565b909155505060008181526002602052604080822080546001600160a01b0319166001600160a01b03861690811790915590518392907fddf252ad1be2c89b69c2b068fc378daa952ba7f163c4a11628f55a4df523b3ef908290a45050565b6040518060800160405280600081526020016000815260200160006001600160a01b031681526020016000151581525090565b5080546123f8906128f3565b6000825580601f10612408575050565b601f0160209004906000526020600020908101906115e091906124aa565b828054612432906128f3565b90600052602060002090601f016020900481019282612454576000855561249a565b82601f1061246d57805160ff191683800117855561249a565b8280016001018555821561249a579182015b8281111561249a57825182559160200191906001019061247f565b506124a69291506124aa565b5090565b5b808211156124a657600081556001016124ab565b6001600160e01b0319811681146115e057600080fd5b6000602082840312156124e757600080fd5b8135611d65816124bf565b60005b8381101561250d5781810151838201526020016124f5565b83811115610afc5750506000910152565b600081518084526125368160208601602086016124f2565b601f01601f19169290920160200192915050565b602081526000611d65602083018461251e565b60006020828403121561256f57600080fd5b5035919050565b80356001600160a01b038116811461258d57600080fd5b919050565b600080604083850312156125a557600080fd5b6125ae83612576565b946020939093013593505050565b600080604083850312156125cf57600080fd5b50508035926020909101359150565b6000806000606084860312156125f357600080fd5b6125fc84612576565b925061260a60208501612576565b9150604084013590509250925092565b6020808252825182820181905260009190848201906040850190845b818110156126855761267283855180518252602080820151908301526040808201516001600160a01b0316908301526060908101511515910152565b9284019260809290920191600101612636565b50909695505050505050565b634e487b7160e01b600052604160045260246000fd5b600067ffffffffffffffff808411156126c2576126c2612691565b604051601f8501601f19908116603f011681019082821181831017156126ea576126ea612691565b8160405280935085815286868601111561270357600080fd5b858560208301376000602087830101525050509392505050565b600082601f83011261272e57600080fd5b611d65838335602085016126a7565b60006020828403121561274f57600080fd5b813567ffffffffffffffff81111561276657600080fd5b6115308482850161271d565b81518152602080830151908201526040808301516001600160a01b03169082015260608083015115159082015260808101610605565b6000602082840312156127ba57600080fd5b611d6582612576565b600080604083850312156127d657600080fd5b6127df83612576565b9150602083013580151581146127f457600080fd5b809150509250929050565b6000806000806080858703121561281557600080fd5b61281e85612576565b935061282c60208601612576565b925060408501359150606085013567ffffffffffffffff81111561284f57600080fd5b8501601f8101871361286057600080fd5b61286f878235602084016126a7565b91505092959194509250565b6000806040838503121561288e57600080fd5b823567ffffffffffffffff8111156128a557600080fd5b6128b18582860161271d565b95602094909401359450505050565b600080604083850312156128d357600080fd5b6128dc83612576565b91506128ea60208401612576565b90509250929050565b600181811c9082168061290757607f821691505b60208210810361292757634e487b7160e01b600052602260045260246000fd5b50919050565b60208082526031908201527f4552433732313a207472616e736665722063616c6c6572206973206e6f74206f6040820152701ddb995c881b9bdc88185c1c1c9bdd9959607a1b606082015260800190565b634e487b7160e01b600052603260045260246000fd5b634e487b7160e01b600052601160045260246000fd5b600082198211156129bd576129bd612994565b500190565b6000600182016129d4576129d4612994565b5060010190565b600082516129ed8184602087016124f2565b9190910192915050565b6020808252818101527f4f776e61626c653a2063616c6c6572206973206e6f7420746865206f776e6572604082015260600190565b6000816000190483118215151615612a4657612a46612994565b500290565b634e487b7160e01b600052601260045260246000fd5b600082612a7057612a70612a4b565b500490565b60008351612a878184602088016124f2565b835190830190612a9b8183602088016124f2565b01949350505050565b600082821015612ab657612ab6612994565b500390565b60208082526032908201527f4552433732313a207472616e7366657220746f206e6f6e20455243373231526560408201527131b2b4bb32b91034b6b83632b6b2b73a32b960711b606082015260800190565b6001600160a01b0385811682528416602082015260408101839052608060608201819052600090612b409083018461251e565b9695505050505050565b600060208284031215612b5c57600080fd5b8151611d65816124bf565b600082612b7657612b76612a4b565b500690565b634e487b7160e01b600052603160045260246000fdfea264697066735822122053e1947bf4519d43ea328475da8ed6944467e73239dd44ce6d80e3b92c3ee2b064736f6c634300080d0033",
  "immutableReferences": {},
  "source": "// SPDX-License-Identifier: MIT\r\npragma solidity >=0.4.22 <0.9.0;\r\n\r\nimport \"@openzeppelin/contracts/token/ERC721/extensions/ERC721URIStorage.sol\";\r\nimport \"@openzeppelin/contracts/utils/Counters.sol\";\r\nimport \"@openzeppelin/contracts/access/Ownable.sol\";\r\nimport \"@openzeppelin/contracts/utils/math/Math.sol\";\r\n\r\ncontract NftMarket is ERC721URIStorage, Ownable {\r\n    using Counters for Counters.Counter;\r\n\r\n    // Nft\r\n    struct NftItem {\r\n        uint tokenId;\r\n        uint price;\r\n        address creator;\r\n        bool isListed;\r\n    }\r\n\r\n    // \r\n    uint public listingPrice = 0.025 ether;\r\n\r\n    // tokenIds\r\n    Counters.Counter private _tokenIds;\r\n    // _listedItems\r\n    Counters.Counter private _listedItems;\r\n\r\n    mapping(address => mapping(uint => uint)) private _ownedTokens;\r\n    mapping(uint => uint) private _idToOwnedIndex;\r\n\r\n    uint256[] private _allNfts;\r\n\r\n    // tokenURI\r\n    mapping(string => bool) private _usedTokenURIs;\r\n\r\n    // tokenIdnft\r\n    mapping(uint => NftItem) private _idToNftItem;\r\n\r\n    // tokenId  index \r\n    mapping(uint => uint) private _idToNftIndex;\r\n\r\n    // nftItem\r\n    event NftItemCreated(\r\n        uint tokenId,\r\n        uint price,\r\n        address creator,\r\n        bool isListed\r\n    );\r\n\r\n    constructor() ERC721(\"CreaturesNFT\", \"CNFT\") {}\r\n\r\n    // \r\n    function setListingPrice(uint newPrice) external onlyOwner {\r\n        require(newPrice > 0, \"Price must be at least 1 wei.\");\r\n        listingPrice = newPrice;\r\n    }\r\n\r\n    // nft\r\n    function totalSupply() public view returns (uint) {\r\n        return _allNfts.length;\r\n    }\r\n\r\n    // index  tokenId\r\n    function tokenByIndex(uint index) public view returns (uint) {\r\n        require(index < totalSupply(), \"index out of boundary\");\r\n        return _allNfts[index];\r\n    }\r\n\r\n    // index  ownedTokenId\r\n    function tokenOfOwnerIdByIndex(\r\n        address owner,\r\n        uint index\r\n    ) public view returns (uint) {\r\n        require(index < balanceOf(owner), \"index out of boundary\");\r\n        return _ownedTokens[owner][index];\r\n    }\r\n\r\n    // NFT\r\n    function getAllNftsOnSale() public view returns (NftItem[] memory) {\r\n        uint allItemsCounts = totalSupply();\r\n        uint currentIndex = 0;\r\n        NftItem[] memory items = new NftItem[](_listedItems.current());\r\n\r\n        for (uint i = 0; i < allItemsCounts; i++) {\r\n            uint tokenId = tokenByIndex(i);\r\n            NftItem storage item = _idToNftItem[tokenId];\r\n\r\n            if (item.isListed == true) {\r\n                items[currentIndex] = item;\r\n                currentIndex += 1;\r\n            }\r\n        }\r\n\r\n        return items;\r\n    }\r\n\r\n    // NFT\r\n    function getOwnedNfts() public view returns (NftItem[] memory) {\r\n        uint ownedItemsCounts = balanceOf(msg.sender);\r\n        NftItem[] memory items = new NftItem[](ownedItemsCounts);\r\n\r\n        for (uint i = 0; i < ownedItemsCounts; i++) {\r\n            uint tokenId = tokenOfOwnerIdByIndex(msg.sender, i);\r\n            NftItem storage item = _idToNftItem[tokenId];\r\n            items[i] = item;\r\n        }\r\n\r\n        return items;\r\n    }\r\n\r\n    // NFT\r\n    function buyNft(uint tokenId) public payable {\r\n        uint price = _idToNftItem[tokenId].price;\r\n        address owner = ownerOf(tokenId);\r\n\r\n        require(msg.sender != owner, \"You already have this Nft\");\r\n        require(msg.value == price, \"Please submit the asking price\");\r\n\r\n        _idToNftItem[tokenId].isListed = false;\r\n        _listedItems.decrement();\r\n\r\n        _transfer(owner, msg.sender, tokenId);\r\n        payable(owner).transfer(msg.value);\r\n    }\r\n\r\n    // NftItem\r\n    function getNftItem(uint tokenId) public view returns (NftItem memory) {\r\n        return _idToNftItem[tokenId];\r\n    }\r\n\r\n    // nftItem\r\n    function listedItemsCount() public view returns (uint) {\r\n        return _listedItems.current();\r\n    }\r\n\r\n    // tokenURI\r\n    function tokenURIExists(string memory tokenURI) public view returns (bool) {\r\n        return _usedTokenURIs[tokenURI] == true;\r\n    }\r\n\r\n    // \r\n    function burnToken(uint tokenId) public {\r\n        NftItem memory item = _idToNftItem[tokenId];\r\n        if (item.isListed == true) {\r\n            _listedItems.decrement();\r\n        }\r\n        _burn(tokenId);\r\n    }\r\n\r\n    // \r\n    function mintToken(\r\n        string memory tokenURI,\r\n        uint price\r\n    ) public payable returns (uint) {\r\n        require(!tokenURIExists(tokenURI), \"tokenURI already exists!\");\r\n        require(\r\n            msg.value == listingPrice,\r\n            \"Price must be equal to listing price\"\r\n        );\r\n\r\n        _tokenIds.increment();\r\n        _listedItems.increment();\r\n\r\n        uint newTokenId = _tokenIds.current();\r\n\r\n        _safeMint(msg.sender, newTokenId);\r\n        _setTokenURI(newTokenId, tokenURI);\r\n        _nftItemCreate(newTokenId, price);\r\n        _usedTokenURIs[tokenURI] = true;\r\n\r\n        return newTokenId;\r\n    }\r\n\r\n    // NFT\r\n    function placeNftOnSale(uint tokenId, uint newPrice) public payable {\r\n        require(\r\n            ownerOf(tokenId) == msg.sender,\r\n            \"You are not owner of this nft\"\r\n        );\r\n        require(\r\n            _idToNftItem[tokenId].isListed == false,\r\n            \"Item is already on sale\"\r\n        );\r\n        require(\r\n            msg.value == listingPrice,\r\n            \"Price myst be equal to listing price\"\r\n        );\r\n\r\n        _idToNftItem[tokenId].isListed = true;\r\n        _idToNftItem[tokenId].price = newPrice;\r\n        _listedItems.increment();\r\n    }\r\n\r\n    // \r\n    function cancelNftOnSale(uint tokenId) public payable {\r\n        require(\r\n            ownerOf(tokenId) == msg.sender,\r\n            \"You are not owner of this nft\"\r\n        );\r\n        require(_idToNftItem[tokenId].isListed == true, \"Item is not on sale\");\r\n\r\n        // 80%\r\n        uint refundAmount = (listingPrice * 80) / 100;\r\n        payable(msg.sender).transfer(refundAmount);\r\n        _idToNftItem[tokenId].isListed = false;\r\n        _idToNftItem[tokenId].price = 0;\r\n        _listedItems.decrement();\r\n    }\r\n\r\n    // nftItem\r\n    function _nftItemCreate(uint tokenId, uint price) private {\r\n        require(price > 0, \"Price must be at least 1 wei\");\r\n        _idToNftItem[tokenId] = NftItem(tokenId, price, msg.sender, true);\r\n        emit NftItemCreated(tokenId, price, msg.sender, true);\r\n    }\r\n\r\n    // mint tranfer burn \r\n    function _beforeTokenTransfer(\r\n        address from,\r\n        address to,\r\n        uint256 tokenId\r\n    ) internal virtual override {\r\n        super._beforeTokenTransfer(from, to, tokenId);\r\n\r\n        if (from == address(0)) {\r\n            _addTokenToAllTokensEnumeration(tokenId);\r\n        } else if (from != to) {\r\n            _removeTokenFromOwnerEnumeration(from, tokenId);\r\n        }\r\n\r\n        if (to == address(0)) {\r\n            _removeTokenFromAllTokensEnumeration(tokenId);\r\n        } else if (to != from) {\r\n            _addTokenToOwnerEnumeration(to, tokenId);\r\n        }\r\n    }\r\n\r\n    function _addTokenToAllTokensEnumeration(uint tokenId) private {\r\n        _idToNftIndex[tokenId] = _allNfts.length;\r\n        _allNfts.push(tokenId);\r\n    }\r\n\r\n    function _addTokenToOwnerEnumeration(address to, uint tokenId) private {\r\n        uint256 length = balanceOf(to);\r\n        _ownedTokens[to][length] = tokenId;\r\n        _idToOwnedIndex[tokenId] = length;\r\n    }\r\n\r\n    function _removeTokenFromOwnerEnumeration(\r\n        address from,\r\n        uint tokenId\r\n    ) private {\r\n        uint lastTokenIndex = balanceOf(from) - 1;\r\n        uint tokenIndex = _idToOwnedIndex[tokenId];\r\n\r\n        if (tokenIndex != lastTokenIndex) {\r\n            uint lastTokenId = _ownedTokens[from][lastTokenIndex];\r\n\r\n            _ownedTokens[from][tokenIndex] = lastTokenId;\r\n            _idToOwnedIndex[lastTokenId] = tokenIndex;\r\n        }\r\n\r\n        delete _idToOwnedIndex[tokenId];\r\n        delete _ownedTokens[from][lastTokenIndex];\r\n    }\r\n\r\n    function _removeTokenFromAllTokensEnumeration(uint tokenId) private {\r\n        uint lastTokenIndex = _allNfts.length - 1;\r\n        uint tokenIndex = _idToNftIndex[tokenId];\r\n        uint lastTokenId = _idToNftIndex[lastTokenIndex];\r\n\r\n        _allNfts[tokenIndex] = lastTokenId;\r\n        _idToNftIndex[lastTokenId] = tokenIndex;\r\n\r\n        delete _idToNftIndex[tokenId];\r\n        _allNfts.pop();\r\n    }\r\n}\r\n",
  "sourcePath": "E:\\blockchainPro\\nft-market\\contracts\\NftMarket.sol",
  "compiler": {
    "name": "solc",
    "version": "0.8.13+commit.abaa5c0e.Emscripten.clang"
  },
  "schemaVersion": "3.4.16",
  "updatedAt": "2024-09-14T02:35:31.321Z",
  "networkType": "ethereum",
  "devdoc": {
    "kind": "dev",
    "methods": {
      "approve(address,uint256)": {
        "details": "See {IERC721-approve}."
      },
      "balanceOf(address)": {
        "details": "See {IERC721-balanceOf}."
      },
      "getApproved(uint256)": {
        "details": "See {IERC721-getApproved}."
      },
      "isApprovedForAll(address,address)": {
        "details": "See {IERC721-isApprovedForAll}."
      },
      "name()": {
        "details": "See {IERC721Metadata-name}."
      },
      "owner()": {
        "details": "Returns the address of the current owner."
      },
      "ownerOf(uint256)": {
        "details": "See {IERC721-ownerOf}."
      },
      "renounceOwnership()": {
        "details": "Leaves the contract without owner. It will not be possible to call `onlyOwner` functions anymore. Can only be called by the current owner. NOTE: Renouncing ownership will leave the contract without an owner, thereby removing any functionality that is only available to the owner."
      },
      "safeTransferFrom(address,address,uint256)": {
        "details": "See {IERC721-safeTransferFrom}."
      },
      "safeTransferFrom(address,address,uint256,bytes)": {
        "details": "See {IERC721-safeTransferFrom}."
      },
      "setApprovalForAll(address,bool)": {
        "details": "See {IERC721-setApprovalForAll}."
      },
      "supportsInterface(bytes4)": {
        "details": "See {IERC165-supportsInterface}."
      },
      "symbol()": {
        "details": "See {IERC721Metadata-symbol}."
      },
      "tokenURI(uint256)": {
        "details": "See {IERC721Metadata-tokenURI}."
      },
      "transferFrom(address,address,uint256)": {
        "details": "See {IERC721-transferFrom}."
      },
      "transferOwnership(address)": {
        "details": "Transfers ownership of the contract to a new account (`newOwner`). Can only be called by the current owner."
      }
    },
    "version": 1
  },
  "userdoc": {
    "kind": "user",
    "methods": {},
    "version": 1
  }
}